:020000040800F2
:100000000847002061020008C729000837260008B9
:10001000C52900081B0B0008E52F000800000000A0
:10002000000000000000000000000000A101000826
:100030006D0B000800000000FD010008552B0008B2
:100040007B0200087B0200087B0200087B0200089C
:100050007B0200087B0200087B0200087B0200088C
:100060007B0200087B0200087B0200087B0200087C
:100070007B0200087B0200087B0200087B0200086C
:100080007B0200087B0200087B0200087B0200085C
:100090007B0200087B0200087B0200086F0B00084F
:1000A0007B0200087B0200087B0200087B0200083C
:1000B0007B0200087B0200087B0200087B0200082C
:1000C0007B0200087B0200087B0200087B0200081C
:1000D0007B0200087B0200087B020008D92F000881
:1000E0007B0200087B0200087B0200087B020008FC
:1000F0007B020008292C00087B0200087B02000814
:100100007B0200087B0200087B0200087B020008DB
:100110007B0200087B0200087B0200087B020008CB
:100120007B0200087B0200087B0200087B020008BB
:100130007B02000800000000000000007B020008B5
:100140007B0200087B0200087B0200087B0200089B
:100150007B0200087B0200087B0200087B0200088B
:100160007B0200087B0200087B0200087B0200087B
:100170007B0200087B020008000000000000000075
:100180007B0200087B020008DFF810D000F04CF979
:1001900000480047693A0008AFF300800847002094
:1001A0002C4B19680868B0E8F04F80F30988BFF35A
:1001B0006F8F4FF0000080F311887047000000003F
:1001C00008480068006880F308884FF0000080F35A
:1001D000148862B661B6BFF34F8FBFF36F8F00DF35
:1001E00000BF00BF08ED00E0DFF80C00016841F43B
:1001F00070010160704700BF88ED00E0EFF30980F7
:10020000BFF36F8F134B1A681EF0100F08BF20ED5D
:10021000108A20E9F04F106009B44FF0500080F3CD
:100220001188BFF34F8FBFF36F8F04F07BFB4FF04C
:10023000000080F3118809BC19680868B0E8F04F25
:100240001EF0100F08BFB0EC108A80F30988BFF3CE
:100250006F8F704740000020EFF30580704700006B
:100260000648804706480047FEE7FEE7FEE7FEE750
:10027000FEE7FEE7FEE7FEE7FEE7FEE7192C0008D3
:10028000890100082DE9F05F0546002092469B4653
:1002900088460646814640241BE02846414647469C
:1002A000224600F079F853465A46C01A914110D3BD
:1002B00011461846224600F060F82D1A67EB010837
:1002C0004F4622460120002100F057F817EB0009A5
:1002D0004E41201EA4F10104DFDC484631462A4687
:1002E0004346BDE8F09F40EA01039B0703D009E0C5
:1002F00008C9121F08C0042AFAD203E011F8013B12
:1003000000F8013B521EF9D27047D2B201E000F86A
:10031000012B491EFBD270470022F6E710B51346A9
:100320000A4604461946FFF7F0FF204610BD30B5D7
:1003300005462A460B4612F8010B13F8014B08B18B
:10034000A042F8D01CB1002802D06D1CF1E728466D
:1003500030BD421C10F8011B0029FBD1801A7047E8
:1003600070B5064603F0CEF8046805460A2200215F
:10037000304600F021F82C6070BD202A04DB203AC2
:1003800000FA02F1002070479140C2F1200320FAE8
:1003900003F3194390407047202A04DB203A21FAE6
:1003A00002F00021704721FA02F3D040C2F120028E
:1003B00091400843194670472DE9F04791460F4692
:1003C00080460446002614F8015B2DB100F03EF88B
:1003D0000068405DC007F6D12B2D02D02D2D18D01E
:1003E000641E4A463946204600F034F827B1396881
:1003F000A14201D1C7F8008071054FF002040BD56E
:100400004042002803DD03F07DF80460A007BDE84A
:10041000F08746F48066E4E70028F8DA03F072F823
:1004200004606FF00040F2E7064C074D06E0E0681C
:1004300040F0010394E8070098471034AC42F6D32B
:10044000FFF7A6FE805A0008A05A0008004870472F
:10045000085A00082DE9F05F82460078002715460B
:100460008B460AF10104B946302801D09DB113E052
:1004700014F8010B0127782803D0582801D045B182
:100480000AE00DB1102D07D10027102514F8010B3B
:1004900002E0082500E00A250026B0460EE005FB34
:1004A000080005FB06F1012701EB10461FFA80F852
:1004B000B6F5803F00D3B94614F8010B294600F089
:1004C00018F80028EBDABBF1000F05D00FB1641E5D
:1004D00000E05446CBF80040B9F1000F06D003F01D
:1004E00011F802210160C81EBDE8F09F48EA0640ED
:1004F000FAE73A2800D2303820F02002412A01D30E
:10050000A2F13700884201D34FF0FF30704700005E
:10051000464910B54A6822F440324A604A68436846
:100520001A434A6001684A6822F480724A6001688E
:100530004A68036942EA03224A6001684A6822F075
:1005400040724A6001684A6883681A434A600168D9
:100550008A6822F400628A6001688A68C3681A4364
:100560008A60816A6FF07062D14201688A6822F005
:1005700070628A6001688A680CD0836A1A438A6054
:1005800001688A6822F040528A6001688A68C36AFA
:100590001A4301E022F040528A6001688A6822F022
:1005A00002028A6001688A68037E42EA43028A6026
:1005B00090F82010002901684A680FD042F40062C8
:1005C0004A6001684A6822F460424A6001684A68E9
:1005D000174C436A04EB43331A4301E022F40062F0
:1005E0004A600168CA6A22F47002CA620168CA6A73
:1005F000838B104C04EB03531A43CA6201688A6868
:1006000022F400728A6001688A6890F8303042EA09
:1006100043228A6001688A6822F480628A600168E5
:100620008A68406942EA8020886010BD002301404A
:1006300000E0FFFF0000F0FF10B50A2000F07EFA96
:1006400001221103034800F013FDBDE810400A2009
:1006500000F074BA0004024010B500224FF480513B
:10066000034800F005FDBDE810400A2000F066BA1E
:100670000004024070B506465EA002F00FFF64A0C1
:1006800002F00CFFFFF7D8FF6A4D002280212846B8
:1006900000F0EEFCAC1500222146284600F0E8FCF4
:1006A000022000F0C5FB01222146284600F0E0FCB4
:1006B000642000F0BDFB142000F0BAFB5EA002F045
:1006C000EDFE1121304600F006FA0A2000F0B0FBE2
:1006D0000021304600F0E2F90446014661A002F034
:1006E000DDFE3E2C03D069A002F0D8FEFEE772A02A
:1006F00002F0D4FEB6220121304600F0F9F9C02202
:100700000221304600F0F4F96C220321304600F05B
:10071000EFF920221521304600F0EAF90F220D21D1
:10072000304600F0E5F90F220E21304600F0E0F9E6
:100730000121304600F0B2F901466AA002F0AEFE97
:100740000221304600F0AAF901466CA002F0A6FE94
:100750000321304600F0A2F901466EA002F09EFE91
:100760000421304600F09AF9014670A002F096FE8E
:100770000D21304600F092F9014672A002F08EFE83
:100780000E21304600F08AF9014674A002F086FE80
:100790000524082C01D8602200E081222146304641
:1007A00000F0A6F92146304600F078F90246211FF4
:1007B00070A002F073FE641CE4B20C2CE9D973A0A3
:1007C00002F06CFE1021304600F085F90A2000F09E
:1007D0002FFB79A002F062FE01228021284600F062
:1007E00047FC0A2000F024FBBDE870407DA002F029
:1007F00055BE00004144533132393920496E697485
:10080000205374617274696E672E2E2E0D0A0000DB
:10081000496E69743A20537465702031202D20523E
:10082000657365742073657175656E63652E2E2E14
:100830000D0A000000080240496E69743A205374A2
:1008400065702032202D2053656E64696E672053D9
:10085000444154414320636F6D6D616E642E2E2EB2
:100860000D0A0000414453313239392049443A20BD
:100870003078253032582028457870656374656477
:100880003A2030783345290D0A0000004572726F16
:10089000723A2041445331323939204944206D693C
:1008A000736D61746368212048616C74696E672E92
:1008B0002E2E0D0A00000000496E69743A20537410
:1008C00065702033202D20436F6E666967757269ED
:1008D0006E67207265676973746572732E2E2E0DB4
:1008E0000A000000434F4E4649473120526561647B
:1008F0003A203078253032580D0A0000434F4E46DA
:1009000049473220526561643A20307825303258A8
:100910000D0A0000434F4E4649473320526561643B
:100920003A203078253032580D0A00004C4F4646A8
:1009300020202020526561643A20307825303258DA
:100940000D0A0000424941535F53454E5350202049
:100950003A203078253032580D0A00004249415380
:100960005F53454E534E20203A2030782530325880
:100970000D0A0000434825645345543A20526561EE
:1009800064203078253032580D0A0000496E6974B1
:100990003A20537465702035202D2053656E6469AC
:1009A0006E672052444154414320636F6D6D616E08
:1009B000642E2E2E0D0A0000496E69743A2053747D
:1009C00065702036202D2053656E64696E67205354
:1009D0005441525420636F6D6D616E642E2E2E0D46
:1009E0000A000000496E69743A204144533132399B
:1009F0003920696E697469616C697A6174696F6EB6
:100A000020636F6D706C657465642E0D0A000000C4
:100A100030B58FB00C4605461C2108A8FFF77CFCBA
:100A2000FFF71AFE642100911B2301AA08A9286878
:100A300001F096F90546FFF7FFFD2DB129460EA0FE
:100A400002F02CFD0FB030BDBDF8040020809DF8F1
:100A50000600A070002001AB00EB40010A19194408
:100A6000401CB1F80350A2F803504979C0B251714B
:100A70000828F1D3E6E700004572726F723A2053FE
:100A800050492072656164206661696C65642C2040
:100A90007374617475733D25640D0A001CB50446BA
:100AA000002041F0200100908DF800108DF8040026
:100AB000FFF7D2FD642302226946206801F09DF809
:100AC0006423012201A9206800F0ECFFFFF7B4FDC8
:100AD0009DF804001CBD13B50446FFF7BDFD64235B
:100AE000012201A9206801F088F8FFF7A5FD1CBDCF
:100AF00038B50446002341F0400000938DF8000013
:100B00008DF80220FFF7A8FD6423032269462068C0
:100B100001F073F8FFF790FD38BDFEE70548016866
:100B200041F0807101600448016841F001010160F9
:100B300070470000FCED00E0001000E001B508483F
:100B40004168084A084B1268B2FBF3F2009B5A4313
:100B500000924268009B521A9A42FAD308BD0000E4
:100B6000001000E03C00002040420F007047402091
:100B700000F082B972B6FEE778B50024009490F8D0
:100B80003C20012A19D0012280F83C200A68072560
:100B90000368092A13D9DE680A3A02EB420295403B
:100BA000AE43DE600A788B680A3A02EB4202934059
:100BB0000268D5682B43D36010E0022078BD1E691F
:100BC00002EB42029540AE431E610A788B6802EB4D
:100BD00042029340026815692B4313614A681F253E
:100BE000072A13D203685E6B521E02EB8202954005
:100BF000AE435E630A8893B20A79521E02EB820208
:100C000093400268556B2B43536327E003680D2A1A
:100C100012D21E6BD21F02EB82029540AE431E63BE
:100C20000A8893B20A79D21F02EB820293400268CB
:100C3000156B2B43136311E0DE6A0D3A02EB82025F
:100C40009540AE43DE620A8893B20A790D3A02EB10
:100C5000820293400268D56A2B43D362164B056823
:100C6000144A9D4206D10D68122D03D1556845F4F2
:100C70008005556005689D4218D10B68102B01D086
:100C8000112B13D1536843F40003536009681029F2
:100C90000CD10A490A4A0968B1FBF2F101EB810162
:100CA000490000E0491E00910029FBD180F83C403A
:100CB000002078BD00230140002001403C000020BE
:100CC00040420F0070B504004FF0000603D0206CC6
:100CD000002510B107E0012070BD204600F01CF88F
:100CE000656484F83C50206CC00610D4206C20F45D
:100CF000885040F0020020642046FFF709FC65643C
:100D0000206C20F0020040F00100206400E0012689
:100D100084F83C50304670BD10B586B004461421AE
:100D20006846FFF7F9FA1149206888421CD110483B
:100D30000021026842F480720260006800F4807052
:100D400005900B481438026842F001020260006806
:100D500000F001000590402000900320CDE9010142
:100D60006946044800F094F806B010BD0020014028
:100D700044380240000002402DE9F0410446876DEE
:100D800000F07CF9054694F835000026022806D0CC
:100D90008020606584F834600120BDE8F08120681F
:100DA000016821F0160101602068416921F080018D
:100DB0004161206C08B9A06C20B12068016821F065
:100DC000080101602068016821F0010101600CE068
:100DD00000F054F9401B052807D920206065032046
:100DE00084F8350084F83460D7E720680068C007CD
:100DF000EED194F85C103F208840B860012084F860
:100E0000350084F834600020C7E790F835100229D7
:100E100003D08021416501207047052180F83510FD
:100E20000068016821F001010160002070470000A6
:100E300070B5044600F022F90546601C02D0044853
:100E40000078044400F01AF9401BA042FAD370BDA8
:100E50003000002010B5402809D11021044800F0CE
:100E6000FFF804488068BDE8104002F07FBF10BD65
:100E7000000402400C000020044910B50A68024238
:100E800002D00860FFF7E6FF10BD0000143C0140EF
:100E90002DE9F84FDFF89C910022A9F1040B0327FC
:100EA0004FF00F0C09F1040AABF1040E01250B6899
:100EB00095402B40AB426ED10C7904F00304012C19
:100EC00001D0022C15D18668540007FA04F826EAEE
:100ED0000806D1F80C8008FA04F848EA0608C0F8B9
:100EE00008804468AC430D79C5F30015954025434F
:100EF00045600C79E443A40708D0C568540007FA9C
:100F000004F6B5438E68A6402E43C6600C7904F003
:100F10000304022C11D1D40800EB8406356A54076F
:100F2000E40E0CFA04F825EA0805D1F8108008FA56
:100F300004F848EA0508C6F820800568540007FA56
:100F400004F6B5430E7906F00306A6402E4306606C
:100F50004C6814F4403F66D0374C256845F4804512
:100F60002560246822F0030504F480440094334C87
:100F700005EB0408D8F808589407260F0CFA06F475
:100F8000A5432F4CA04201D1002424E02D4CA042C7
:100F900002D101241FE046E02B4CA04201D10224E3
:100FA00019E02A4CA04201D1032414E0284CA042AD
:100FB00001D104240FE0274CA04201D105240AE00E
:100FC000254CA04201D1062405E0244CA04201D1C9
:100FD000072400E00824B4402C43C8F80848D9F896
:100FE00000404D464E689C43F60200D51C432C60E1
:100FF000DAF8004055464E689C43B60200D51C43C3
:101000002C60DBF800405D464E689C43B60300D57B
:101010001C432C60DEF8004075464E689C43F60386
:1010200000D51C432C60521C102AFFF43FAFBDE8D2
:10103000F88F0000083C0140443802400030014075
:10104000000002400004024000080240000C024080
:10105000001002400014024000180240001C024030
:10106000426921EA02030A4043EA02418161704772
:101070000AB1816170470904FBE7000001488068FC
:10108000704700003000002070B5040025D094F8AF
:101090003D00002520B984F83C50204600F0B8F807
:1010A000242084F83D002068016821F001010160DE
:1010B0002068016841F4004101602068016821F462
:1010C0000041016000F05CFA4D4B6168994201D823
:1010D0004C4900E04C49884201D2012070BD4B4987
:1010E0002268B0FBF1F1566826F03F060E435660C9
:1010F00062689A4206D94FF4967251434FF47A725D
:10110000B1FBF2F12268491C166A26F03F06314312
:1011100011626168994210D84900401EB0FBF1F29B
:10112000521CC2F30B02042A01D2042022E0B0FBBD
:10113000F1F0401CC0F30B001CE0A268F2B301EB1D
:10114000C10303EB0116431EB3FBF6F35B1C43F430
:1011500080431B0549D092B301EBC10202EB0111A0
:10116000401EB0FBF1F0401CC0F30B0040F4804087
:1011700040F400402168CA694CF6FF739A4310435B
:10118000C861D4E9071001432068026822F0C00258
:1011900011430160D4E9030101432068826848F2E9
:1011A000FF339A4311438160D4E90510014320685D
:1011B000C26822F0FF021143C16001E00EE016E0B8
:1011C0002068016841F0010101602564202084F855
:1011D0003D00256384F83E50002070BD01EB4106C0
:1011E000431EB3FBF6F35B1CB3E70120C2E701EB40
:1011F0004101401EB0FBF1F0401CC0F30B00B7E70B
:10120000A086010080841E0000093D0040420F00BE
:1012100010B586B0044614216846FFF77DF81349DF
:101220002068884220D112480021026842F0020260
:101230000260006800F002000590C02000901220BB
:10124000CDE9010103200390042004906946094878
:10125000FFF71EFE06481030016841F400110160DE
:10126000006800F40010059006B010BD0054004066
:10127000303802400004024002488168027811447C
:1012800081607047300000200B4810B5016841F4C0
:1012900000710160016841F480610160016841F4FE
:1012A00080710160032000F09FF80F2000F006F825
:1012B00000F050F8002010BD003C024030B505465B
:1012C0001F4887B00024016841F480710160006804
:1012D00006A900F480700590684600F031F9039883
:1012E000A8B100F04DF940001649174AB0FBF1F1E2
:1012F0001648491E026040F2E732C0E90324C0E903
:101300000114846100F021FE040003D015E000F018
:1013100037F9E9E70D4800F047FE04000DD12D2014
:1013200000F034F8102D07D2002229462D2000F0BD
:101330003BF80748056000E0012407B0204630BDB7
:101340004038024040420F0000200040D0050020FD
:10135000340000200C4882B0016841F480410160F3
:10136000006800F4804000900748001F016841F0C9
:10137000805101600068002200F0805000900F2131
:10138000901E02B000F010B844380240002809DB7B
:1013900000F01F02012191404009800000F1E0208F
:1013A000C0F8001170470000F0B40E4B1B68C3F387
:1013B0000223C3F10704042C00D904241D1D072DAA
:1013C00001D2002300E0DB1E012606FA04F56D1EA3
:1013D0000D409D409E40761E164045EA0601F0BC39
:1013E00002F080B80CED00E0064A00F0070110683A
:1013F0004FF6FF03184040EA0120034908431060FC
:10140000704700000CED00E00000FA052DE9F04700
:101410000D46040065D0DFF81491D9F80000EFB252
:1014200000F00700A84207D289F80070D9F8000040
:1014300000F00700A84254D120683D4E810712D524
:10144000400703D5306840F4E05030602078000752
:1014500003D5306840F4604030603068A16820F007
:10146000F000084330602078C0072DD03049606814
:101470000839012812D0022813D0032811D0096896
:10148000890700292DDA316821F003010143316019
:10149000FFF7F4FD804641F2883A0EE009688903BF
:1014A000EFE709688901ECE7FFF7E8FDA0EB080129
:1014B000514502D90320BDE8F0873068616800F02B
:1014C0000C00B0EB810FEFD1D9F80010484601F0C5
:1014D0000701A94207D90770006800F00700A84279
:1014E00001D00120E7E72078400705D53068E168A2
:1014F00020F4E050084330602078000706D53068BB
:10150000216920F4604040EAC100306000F058F8E2
:101510003168084AC1F30311515CC84006490860AC
:1015200006480068FFF7CAFE0020C4E7003C0240FE
:10153000083802406C5900083C00002034000020AC
:101540000F2202600C4A136803F003034360136820
:1015500003F0F0038360136803F4E053C360126880
:101560004FF4E05303EAD20202610448006800F03D
:10157000070008607047000008380240003C024045
:101580000448054900680968044AC1F38221515C96
:10159000C84070473C000020083802407C590008D1
:1015A0000448054900680968044AC1F34231515CA6
:1015B000C84070473C000020083802407C590008B1
:1015C000154810B5006810F00C01144813D0144BE6
:1015D00004290FD008290ED10F4C241F216801F0D7
:1015E0003F022168490207D52068C0F38810A0FB9C
:1015F000030106E0184610BD2168C1F38811A1FB64
:1016000000010023FEF73EFE2168C1F30141491CA1
:101610004900B0FBF1F010BD083802400024F4008E
:1016200040787D012DE9F84F040075D02078DFF86F
:1016300038A3C007AAF1040548D00AF104000168E4
:10164000C1F38101012908D00068C0F3810002289C
:101650000AD1DAF80000400206D52868800335D5A3
:1016600060680028E1D031E06068B0F5803F10D0BC
:10167000B0F5A02F286810D020F4803028602868AA
:1016800020F4802028606068A0B1FFF7F7FC0646D0
:101690000CE0286840F48030F4E740F480202860B3
:1016A000F7E7FFF7EBFC801B642871D828688003FC
:1016B000F7D50BE0FFF7E2FC064604E0FFF7DEFC9F
:1016C000801B6428F1D828688003F7D42078DFF8DD
:1016D0009C9280074FF0000B3DD5A348001D016888
:1016E00011F00C0F08D00068C0F3810002280AD165
:1016F000DAF80000400206D42868800715D5E068B3
:10170000012809D111E0E068B8B10120C9F8000052
:10171000FFF7B4FC064605E022E1FFF7AFFC801BB3
:101720000228C2D828688007F7D52868216920F0E8
:10173000F80040EAC10028600DE0C9F800B0FFF7EA
:101740009DFC064604E0FFF799FC801B02281FD889
:1017500028688007F7D42078000722D5824F844874
:101760006169703771B101210160FFF787FC06469E
:1017700004E0FFF783FC801B022809D83868800743
:10178000F7D50EE0C0F800B0FFF778FC064605E09C
:1017900082E0FFF773FC801B02287DD83868800741
:1017A000F7D42078400765D56F484FF000083C30EB
:1017B0000068C0000BD46C483C30016841F0805197
:1017C000016000684FF0010800F080500090694F00
:1017D0003868C0050FD4386840F480703860FFF76F
:1017E0004DFC064604E0FFF749FC801B022853D855
:1017F0003868C005F7D55C4FA0686C3701280FD05A
:101800000528386810D020F001003860386820F0D2
:1018100004003860A068B0B1FFF730FC06460EE067
:10182000386840F00100F4E740F004003860F7E762
:10183000FFF724FC811B41F28830814263D838686D
:101840008007F5D50DE0FFF719FC064606E0FFF727
:1018500015FC811B41F28830814254D838688007DA
:10186000F5D4B8F1000F05D03F483C30016821F0B5
:1018700080510160A069B8B33B49091D0968C1F3F3
:101880008101022946D00228584606D0C9F86000D6
:10189000FFF7F4FB044639E035E04F46C9F8600035
:1018A000FFF7ECFB064604E0FFF7E8FB801B02288D
:1018B00029D828688001F7D4D4E907010843A16A30
:1018C0002D4A490802EB0141626A41EA821108434C
:1018D00094F82C1040EA0161CAF800100120386623
:1018E000FFF7CCFB044605E03CE0FFF7C7FB001B1D
:1018F000022808D828688001F7D533E0FFF7BEFB3F
:10190000001B022802D90320BDE8F88F2868800157
:10191000F4D427E00128F7D0DAF80000E26900F4F7
:10192000800191421CD1226A00F03F01914217D1FF
:1019300047F6C071626A0140B1EB821F10D1A26A02
:101940004FF0FF3300F4403103EB5202B1EB024F92
:1019500006D194F82C1000F07060B0EB016F01D04C
:101960000120D1E70020CFE70438024000004742C1
:10197000800E4742007000400000FFFF70B5040079
:1019800009D0606A002540B125616561A56294F8BF
:10199000510040B10CE0012070BD6068B0F5827F5D
:1019A000F4D0E561F2E784F85050204600F044F8A6
:1019B000022084F851002068016821F04001016094
:1019C000A088218900F4827001F404410843A189B0
:1019D00001F400610843217C01F002010843217DEC
:1019E00001F001010843218B01F400710843217FBC
:1019F00001F03801084394F8201001F080010843F9
:101A0000218D01F40051084321680860A069042178
:101A100001EA104094F8241001F0100108432168F5
:101A200048602068C16921F40061C16165650120D9
:101A300084F85100002070BD10B586B00446142112
:101A40006846FEF769FC14492068884221D1134892
:101A50000021026842F480420260006800F4804085
:101A600005900E481038026842F0020202600068D9
:101A700000F0020005904FF4604000900220CDE994
:101A80000101032003900520049069460448FFF7F4
:101A9000FFF906B010BD0000003800404038024099
:101AA000000402402DE9F84F044690F851008846A2
:101AB0001D46174601283BD1B8F1000F78D0002F02
:101AC00076D060684FF00409B0F5827F01D1A0683C
:101AD00018B3FFF7D3FA064694F85000012827D030
:101AE0004FF0010A84F850A084F851904FF000099B
:101AF000C4F85490C4F83880A787E787C4F83090BA
:101B0000A4F83490A4F83690C4F84090C4F84490F7
:101B1000A068B0F5004F0DD016E084F85190009306
:101B2000134642461146204600F01AF9BDE8F88FE8
:101B30000220FBE72068016821F040010160206875
:101B4000016821F48041016020680168490603D4DE
:101B5000016841F040010160E068B8B132E02068FE
:101B60008168C90709D0007BA16B0870A06B401C7D
:101B7000A063E08F401EE08708E0FFF77FFA801B3C
:101B8000A84202D3681C01D031E07DB3E08F002869
:101B9000E5D11AE020688168C9070AD0C068A16B46
:101BA0000880A06B801CA063E08F401EE08709E0E6
:101BB0001AE0FFF763FA801BA84202D3681C01D029
:101BC00015E09DB1E08F0028E4D132462946204639
:101BD00000F0FAFE08B12020606584F851A084F876
:101BE0005090606D0028A1D001209FE7FFE784F8A6
:101BF00051A084F85090032098E72DE9F84F1D4636
:101C000017468A460446FFF739FA064694F851000B
:101C1000012826D1BAF1000F77D0002F75D094F8A3
:101C2000500001281DD04FF0010984F85090032086
:101C300084F851004FF00008C4F85480C4F830A074
:101C4000A786E786C4F83880A4F83C80A4F83E80D4
:101C5000C4F84480C4F84080A068B0F5004F03D0B9
:101C60000CE00220BDE8F88F2068016821F04001F7
:101C700001602068016841F48041016020680168CA
:101C8000490603D4016841F040010160E068B0F505
:101C9000006F606803D028B3012F23D03FE008B164
:101CA000012F1BD1206B21680088C86006E02068E6
:101CB0008168890709D5216B0988C160206B801C68
:101CC0002063E08E401EE08608E0FFF7D7F9801B16
:101CD000A84202D3681C01D02FE075B3E08E002823
:101CE000E5D11FE0206B21680078087306E02068CA
:101CF000816889070AD5216B09780173206B401C24
:101D00002063E08E401EE08609E027E0FFF7B6F989
:101D1000801BA84202D3681C01D00EE06DB1E08E9A
:101D20000028E4D132462946204600F07BFE08B167
:101D300020206065A06830B109E084F8519084F8F3
:101D4000508003208EE72068C1688068009084F886
:101D5000519084F85080606D002883D0012081E785
:101D60002DE9FF4F81B01F469346044601250E9E84
:101D7000FFF784F9804694F851006168012806D085
:101D8000B1F5827F3CD1A168C9BB042838D1029843
:101D9000002870D0BBF1000FFBD0002FF9D094F8D1
:101DA000500001282CD04FF0010A84F850A094F87C
:101DB0005100042802D0052084F851004FF000099A
:101DC000C4F85490C4F838B0E787A7870299216314
:101DD000E786A786C4F84090C4F84490206801685C
:101DE000490603D4016841F040010160E068B0F5A4
:101DF000006F606808D0E8B3012F47D07DE0FFE7AF
:101E0000022005B0BDE8F08F08B1012F37D1206B5B
:101E100021680088C860206B801C2063E08E401E13
:101E2000E0862CE02068816889070DD5E18E59B1E4
:101E3000012D09D1216B0988C160206B801C2063B2
:101E4000E08E401EE086002520688168C9070BD01F
:101E5000E18F49B1C068A16B0880A06B801CA063B2
:101E6000E08F401EE0870125FFF708F9A0EB08008E
:101E7000B04201E00AE064E001D3701C4ED1E08E74
:101E80000028CFD1E08F0028CCD13CE0206B216826
:101E900000780873206B401C2063E08E401EE086B3
:101EA0002BE02068816889070DD5E18E59B1012D9D
:101EB00009D1216B09780173206B401C2063E08EEF
:101EC000401EE086002520688168C9070BD0E18F9D
:101ED00049B1C068A16B0870A06B401CA063E08F83
:101EE000401EE0870125FFF7C9F8A0EB0800B042CB
:101EF00002D3701C01D011E086B1E08E0028D0D151
:101F0000E08F0028CDD142463146204600F08AFDC0
:101F100050B12020606584F8509012E084F851A000
:101F200084F8509003206CE7A06818B92068C16855
:101F30008068009084F851A084F85090606D00286B
:101F4000F1D001205DE77047704710B5040003D061
:101F500094F83D0010B107E0012010BD002084F886
:101F60003C00204600F01EF8022084F83D00211DB0
:101F7000206800F05FFE012084F8460084F83E00EF
:101F800084F83F0084F8400084F8410084F842005F
:101F900084F8430084F8440084F8450084F83D0048
:101FA000002010BD7047000090F83D10012901D0BD
:101FB00001207047022180F83D100168CA6842F094
:101FC0000102CA6000681149884214D0B0F1804F04
:101FD00011D00F4988420ED00E4988420BD00E49CD
:101FE000884208D00D49884205D00D49884202D068
:101FF0000C49884204D1816801F00701062903D009
:10200000016841F0010101600020704700000140BB
:102010000004004000080040000C004000040140A3
:10202000004001400018004070472DE9F04104468F
:102030000068C66805694FF00007A90713D5B10706
:1020400011D5F91E01610120207720688069800781
:10205000204602D0FFF7E8FF04E000F07EF82046BB
:1020600000F07CF82777680716D5700714D521682B
:102070006FF004000861022020772068806910F466
:10208000407F204602D0FFF7CFFF04E000F065F864
:10209000204600F063F82777280715D5300713D5B9
:1020A00021686FF008000861042020772068C0696B
:1020B0008007204602D0FFF7B7FF04E000F04DF89C
:1020C000204600F04BF82777E80616D5F00614D521
:1020D00021686FF010000861082020772068C0692F
:1020E00010F4407F204602D0FFF79EFF04E000F08E
:1020F00034F8204600F032F82777E80708D0F007D8
:1021000006D021686FF001000861204600F028F831
:10211000280608D5300606D521686FF080000861D2
:102120002046FFF710FF680608D5700606D521681F
:102130006FF040000861204600F01CF8A8060AD5A0
:10214000B00608D521686FF0200008612046BDE880
:10215000F041FFF7F9BEBDE8F0817047704700001D
:1021600000680349884201D1FFF786B87047000034
:10217000002000407047704770470000F8B50168C4
:1021800004460868CA684B6910F00F0F4FF000054D
:1021900059D003F0010602F49077374365D0C107A8
:1021A00005D0D10503D5616C41F00101616441079F
:1021B00005D5D90703D0616C41F002016164810744
:1021C00005D5D90703D0616C41F0040161640107B2
:1021D00007D502F02001314303D0616C41F00801C2
:1021E0006164616C00293AD0800604D5900602D55E
:1021F000204600F0B5FD20684069616CC0F3801096
:10220000090700D460B3204600F083FD20684069D0
:10221000400621D52068143050E8001F21F040010D
:1022200040E80012002AF5D1E06BA8B172490165BF
:10223000E06BFEF7EAFD002811D0E06B016D01B004
:10224000BDE8F040084783060FD593060DD520461C
:10225000BDE8F84000F084BD2046FFF78DFFF8BDD3
:102260002046FFF789FF6564F8BD266B2023012E09
:102270007ED1C6067CD5D6067AD508684868009017
:1022800048694FF0020640064DD5E26B1068406881
:102290004FF480770004000C3AD0A18D814237D9E9
:1022A000E085D069B8422DD020680C3050E8001F7E
:1022B00021F4807140E80012002AF5D12068143022
:1022C00050E8001F21F0010140E80012002AF5D17A
:1022D0002068143050E8001F21F0400140E800124F
:1022E000002AF5D184F84230256320680C3050E88C
:1022F000001F21F0100140E80012002AF5D1E06B28
:10230000FEF73AFD6663A08DE18D401A81B206E0CA
:10231000A18D8142A8D1D069B842A5D1666320467B
:10232000FFF729FFF8BDA08DE18D401A81B2E08D45
:102330000028F7D00029F5D020680C3050E8002F95
:1023400022F4907240E80027002FF5D12068143065
:1023500050E8002F22F0010240E80027002FF5D1BD
:1023600084F84230256320680C3050E8002F00E0EC
:1023700006E022F0100240E80023002BF3D1CDE765
:1023800005062BD5150629D594F841002128C9D179
:10239000A068B0F5805F01D12069B0B1206A411C0E
:1023A0002162216800784860E08C401E0004000C27
:1023B000E084B7D12068C16821F08001C160206845
:1023C000C16841F04001C160F8BD206A0088C0F3D7
:1023D00008004860206A801C2062E5E74006F3D5CB
:1023E0005006F1D5CA68204622F04002CA6084F83F
:1023F000413000F01FF9F8BD052D000870B504004C
:1024000004D094F84100002510B106E0012070BD11
:1024100084F84050204600F023F8242084F841003E
:102420002068C16821F40051C160204600F0FAFC28
:102430002068016921F4904101612068416921F01F
:102440002A0141612068C16841F40051C16065649E
:10245000202084F8410084F842006563002070BDAC
:10246000F0B587B0044614216846FDF755FF374B99
:1024700021680024364A0225032607273548994259
:1024800019D1334914310B6843F010030B6009680C
:1024900001F010010591116841F00101116011680E
:1024A00002AB01F0010105917102CDE9001583E84D
:1024B000D00069461DE0264BDFF89CC01033614513
:1024C0001BD1196841F400311960196801F4003119
:1024D0000591116841F00101116011680DF1080CBE
:1024E00001F0010105910C21CDE900158CE8D00027
:1024F0006946FEF7CDFC07B0F0BD18488142FAD11D
:10250000186840F480201860186800F48020059056
:10251000106840F00200106010680DF1080C00F027
:10252000020005904FF44060CDE900058CE8D00032
:1025300069460B48FEF7ACFC002205212720FEF778
:1025400033FF2720FEF722FFD5E7000000100140EF
:102550003038024000000240004400400048004083
:102560000004024090F84230202B01D00220704736
:1025700021B11AB10023036300F0DABC01207047D7
:1025800000680349884201D100F068BF704700002D
:10259000004800402DE9F843044690F841001F46EA
:1025A00015460E46202802D00220BDE8F8838EB1E1
:1025B00085B100206064212084F84100FEF75EFDB3
:1025C000A5848146E584A0684FF02008B0F5805FBF
:1025D00002D003E00120E8E7206910B1354600266B
:1025E0000EE000250CE08021204600F0BCFCA0B9E4
:1025F000BDB115F8010B21684860E08C401EE084F5
:10260000E08C4B464FF0000200970028EBD14FF0D2
:102610004001204600F0A7FC40B184F8418003202F
:10262000C3E736F8020BC0F30800E4E784F8418002
:102630000020BAE77047FEE77FB5002415480094F4
:10264000019402941249039401604FF48031C0E96F
:1026500001140461047680F820400F49C0E90A148F
:102660000125C561C46080F830404561FEF72AFB52
:1026700008B1FEF77FFA0620CDE90005694602940D
:102680000448FEF779FA002801D0FEF773FA7FBDFF
:1026900000200140040400200100000F30B5ABB061
:1026A00000252695012126A8279501F03FFB2A4CFD
:1026B0000021A06001F082FB2895012128A829951E
:1026C00001F034FB0021E06001F078FB2348D0E901
:1026D0000010CDE923102AA82590002123A801F09D
:1026E00000FA1E4960601C220C316846FDF7FBFDB4
:1026F0000021684601F094FB184920611C22283112
:1027000007A8FDF7F0FD002107A801F089FB134998
:1027100060611C2244310EA8FDF7E5FD00210EA8E2
:1027200001F07EFB0D49A0611C22603115A8FDF768
:10273000DAFD002115A801F073FB0849E0611C22B5
:102740007C311CA8FDF7CFFD00211CA801F068FB1F
:1027500020622BB030BD00000C000020D4580008CF
:102760002DE9F04786B014216846FDF7D5FD4448B1
:102770000024016841F080010160016801F08001DE
:102780000591016841F001010160016801F001015A
:102790000591016841F002010160016801F0020148
:1027A0000591016841F004010160016801F0040134
:1027B0000591016841F0080101600068DFF8C480FC
:1027C00000F008000590012212214046FEF750FC5F
:1027D000002241F208014046FEF74AFCDFF8A8A0BB
:1027E0004FF4C076002231465046FEF741FCDFF838
:1027F0009C903701002239464846FEF739FC41F2E9
:102800001A0000900125CDE9015469464046039421
:10281000FEF73EFB402000904FF40410CDE9010488
:1028200069465046FEF734FB0096CDE901546946EF
:1028300050460394FEF72CFB0097CDE901546946FE
:1028400048460394FEF724FB4FF4E050CDE9000422
:10285000694650460294FEF71BFB0420CDE90004B4
:1028600069460B480294FEF713FB0022052117204E
:10287000FEF79AFD1720FEF789FD06B0BDE8F08748
:1028800030380240000402400008024000000240CC
:10289000000C02400D4810B50B4901600C49416025
:1028A00000214FF480428160C0E9031241618161DF
:1028B000C1610162FEF7E8FB002803D0BDE81040CB
:1028C000FEF758B910BD0000005400404C04002031
:1028D000A0860100104810B50E4901604FF48271C6
:1028E0004160002181600122C160C0E904125202EE
:1028F00082612022C0E90721416281620A21C1620E
:10290000FFF73CF8002803D0BDE81040FEF732B9CD
:1029100010BD000000380040A00400200C4810B595
:102920000A4901604FF4E1314160002181600C22CD
:10293000C160C0E904128161C161FFF75FFD002839
:1029400003D0BDE81040FEF715B910BD00100140DE
:10295000F80400200C4810B50A4901604FF4E13139
:102960004160002181600C22C160C0E904128161D4
:10297000C161FFF743FD002803D0BDE81040FEF71A
:10298000F9B810BD00440040400500200C4810B5C7
:102990000A4901604FF4E1314160002181600C225D
:1029A000C160C0E904128161C161FFF727FD002801
:1029B00003D0BDE81040FEF7DDB810BD0048004070
:1029C00088050020FEE7FEE7F8B5044640684FF4AE
:1029D0008273984221D1A0684FF48065B0F5004F12
:1029E00001D0A8420AD12068066826F04006066099
:1029F0006068984211D1A068A8420ED000920B46A0
:102A000000228021204600F043F8002804D0606DA9
:102A100040F0200060650320F8BD00920B460022C4
:102A20000121EFE7F8B515460E460B460092044625
:102A30000122022100F02CF8A0B9134813490068C4
:102A4000B0FBF1F04FF47A71484300906068B0F544
:102A5000827F0DD13346002280212046009500F070
:102A600017F870B1606D40F0200060650320F8BD7C
:102A7000009830B1401E009020688068C043000676
:102A8000F6D50020F8BD00003C00002000366E01A5
:102A90002DE9F8431E46914688460446089DFEF7F8
:102AA000EDFA401B351AFEF7E9FA0746264800689A
:102AB000C0F3CB3068430AE0701C09D0FEF7DEFAA1
:102AC000C01BA8420FD275B10098B8B3401E009049
:102AD0002068816838EA010033D000204845EBD1F6
:102AE0000020BDE8F8832068416821F0E0014160E2
:102AF0006068B0F5827F0BD1A068B0F5004F02D0BE
:102B0000B0F5806F04D12068016821F040010160B8
:102B1000A06AB0F5005F09D12068016821F4005176
:102B200001602068016841F400510160012084F8CF
:102B30005100002084F850000320D2E7FFE7002571
:102B4000C6E70120CAE700003C000020012000F099
:102B5000AAFFFBE710B5502080F31188BFF34F8F19
:102B6000BFF36F8F02F022FD18B104494FF080507F
:102B70000860002080F3118810BD000004ED00E023
:102B800030B593B030216846FDF7C6FB14210CA880
:102B9000FDF7C2FB1E480025016841F0805101602D
:102BA000006800F0805011901A48016841F480419B
:102BB00001600068022400F4804011900120009020
:102BC000000401908001CDE90640192008904FF4DF
:102BD000A870CDE9090404200B906846FEF722FD99
:102BE00008B172B6FEE70CA90F2081E831004FF45E
:102BF000A0500F904FF48050109005210CA8FEF7C4
:102C000005FC002801D072B6FEE713B030BD00000D
:102C100040380240007000400248016841F47001F1
:102C20000160704788ED00E00148FFF7FEB9000041
:102C3000D0050020F0B50268274D284E284FDFF858
:102C4000A4C0294B4FF0804EA84209D0704507D050
:102C5000B04205D0B84203D0604501D0984203D1BC
:102C600022F070044A682243A8421BD0704519D054
:102C7000B04217D0B84215D0604513D0984211D059
:102C80001A4CA0420ED01A4CA0420BD0194CA042B4
:102C900008D0194CA04205D0184CA04202D0184CC4
:102CA000A04203D122F44074CA6822434C6922F046
:102CB000800222438C68C4620C688462A84201D0FE
:102CC000984201D109690163016841F00401016082
:102CD000012141610260F0BD00000140000400409C
:102CE00000080040000C004000040140004001408A
:102CF000004401400048014000180040001C004012
:102D00000020004010B5806B0021C185FFF734FA28
:102D100010BD01680C3151E8002F22F4907241E897
:102D20000023002BF5D10168143151E8002F22F067
:102D3000010241E80023002BF5D1016B012909D1E3
:102D400001680C3151E8002F22F0100241E8002305
:102D5000002BF5D1202180F842100021016370473B
:102D600008B590F84210222901D0022008BD8168E0
:102D70004FF48053994201D1026922B1826A99428B
:102D80001BD049B10AE00268816A5268C2F30802A6
:102D90000A80816A891C08E0016971B1016849688B
:102DA00001F07F011170816A491C8162C18D491E49
:102DB0000904090CC18503D01BE001684968F1E7EB
:102DC0000168CA6822F02002CA600168CA6822F459
:102DD0008072CA6001684A6922F001024A612021BA
:102DE00080F8421000214163026B012A03D0FFF7F3
:102DF000C7FB002008BD016301680C3151E8002FBA
:102E000022F0100241E80023002BF5D101680A6886
:102E1000D20602D50A6849680091818DFFF7ABF9A7
:102E2000E7E7000070B5044600680169E26821F434
:102E3000405111430161A1682069E2690143606961
:102E4000104301432068C26849F20C639A430A4365
:102E5000C26020684169A26921F440711143416157
:102E600031492068884202D03049884202D1FEF7B9
:102E700097FB01E0FEF784FBE2690023192164253A
:102E80003226B2F5004F626828D0A0FB0101930FF3
:102E90009200FDF7F7F90146B0FBF5F06FF018026C
:102EA000504301EB800006EB0010B0FBF5F000F0A2
:102EB000F002B1FBF5F002EB0012B1FBF5F06FF0A0
:102EC0001803584301EB800006EB0010B0FBF5F04F
:102ED00000F00F0021681044886070BDA0FB010164
:102EE00092185B41FDF7CEF90146B0FBF5F0020107
:102EF000B1FBF5F06FF01803584301EB800006EBCF
:102F0000C000B0FBF5F000F0F80002EB4002B1FBAE
:102F1000F5F0584301EB800006EBC000B0FBF5F084
:102F200000F00700D6E70000001001400014014047
:102F300081628285C28500214164222180F842108D
:102F4000016921B10168CA6842F48072CA600168EF
:102F50004A6942F001024A610068C16841F02001FB
:102F6000C160002070472DE9F8431F4690460D468A
:102F70000446089E23E0701C21D0FEF77FF8C01B9A
:102F8000B0421AD8CEB12068C168490717D5802D44
:102F900015D0402D13D00168C94309070FD401682B
:102FA0000025406800902046FFF7B3FE08206064CB
:102FB00084F840500120BDE8F8830320FBE7206837
:102FC000006835EA000004D000204045D3D000203E
:102FD000F1E70120F9E700000148FFF7CFB8000052
:102FE00088050020FEE7000010B51446A0B00B468F
:102FF000024610A1684600F061FA42F2107212A176
:10300000684601F06BFD78B113A11548FDF78FF903
:1030100050B1801DFDF7A4F9C1B2217011A000F0DC
:103020003DFA012020B010BD1AA000F037FA0020B0
:10303000F8E7000041542B534F434B45543D342C8B
:1030400025732C25640D0A00636F6E6E6563742012
:103050007375636365737320436F6E49443D00006D
:10306000B0000020574946493A2054435020636F2E
:103070006E6E656374696F6E2073756363657373D9
:1030800066756C2C20436F6E4944203D2025640DED
:103090000A00000057494649204572726F723A2073
:1030A0004661696C656420746F20636F6E6E656342
:1030B0007420746F20544350207365727665722EAD
:1030C0000D0A000010B508A04FF4FA620AA101F041
:1030D00005FD20B109A000F0E1F9012010BD10A00C
:1030E00000F0DCF9002010BD41542B534F434B45F9
:1030F0005454540D0A0000003E0000005749464950
:103100003A20456E7465726564207472616E7370E6
:103110006172656E74206D6F64652E0D0A0000008B
:1031200057494649204572726F723A204661696C70
:10313000656420746F20656E746572207472616EB0
:1031400073706172656E74206D6F64652E0D0A0078
:1031500010B5A0B03AA000F0A1F9424C0022022123
:103160002046FDF785FF4FF4967000F09CFC01228D
:1031700002212046FDF77CFF40F2DC5000F093FC7A
:1031800039A000F08BF901F09BFC01223F49404837
:10319000FFF7E8F94FF4FA6422463EA13EA001F0A1
:1031A0009DFC00283FD03EA000F078F9C82000F038
:1031B0007AFC224637A143A001F090FC002834D0CD
:1031C00042A000F06BF9C82000F06DFC41F2883499
:1031D000224630A143A001F081FC002827D045A061
:1031E00000F05CF94FF4FA7000F05DFC4BA34EA2C6
:1031F0004EA1684600F062F9224626A1684601F019
:103200006DFC002815D04EA000F048F9A20053A193
:1032100022A001F063FC00280DD055A000F03EF97B
:10322000012020B010BD5BA006E065A0C9E76FA03B
:1032300002E07CA000E0884800F030F90020F0E7D0
:10324000574946493A20506572666F726D696E67DC
:10325000206120686172642072657365742E2E2E61
:103260000D0A000000040240574946493A205374B1
:10327000617274696E67205541525420495420721E
:103280006563656976652E2E2E0D0A000800002004
:10329000880500204F4B000041540D0A000000003B
:1032A000574946493A20436F6D6D756E6963617485
:1032B000696F6E2065737461626C69736865642EF2
:1032C0000D0A0000415445300D0A00005749464997
:1032D0003A204563686F2064697361626C65642E8F
:1032E0000D0A000041542B574D4F44453D312C31C0
:1032F0000D0A0000574946493A204D6F6465207316
:10330000657420746F2053746174696F6E20616EF0
:10331000642073617665642E0D0A00003132333407
:1033200035363738000000004545470041542B57DB
:103330004A41503D222573222C222573220D0A007A
:10334000574946493A20436F6E6E656374696E67EC
:1033500020746F2041502E2E2E0D0A002B4556450D
:103360004E543A574946495F474F545F4950000011
:10337000574946493A20496E697469616C697A61B6
:1033800074696F6E207375636365737366756C2102
:103390000D0A000057494649204572726F723A2063
:1033A0004E6F20726573706F6E736520746F20416D
:1033B0005420636F6D6D616E642E0D0A0000000075
:1033C00057494649205761726E3A204661696C65DB
:1033D0006420746F2064697361626C652065636842
:1033E0006F202841544530292E0D0A00574946497F
:1033F000204572726F723A204661696C6564207470
:103400006F2073657420535441206D6F64652028CC
:1034100041542B574D4F44453D312C31292E0D0A37
:103420000000000057494649204572726F723A20E9
:1034300041542B574A415020636F6D6D616E64207B
:103440006661696C656420746F2065786563757466
:10345000652E0D0A000000000C5A00080749488834
:10346000FF2806D80A784888054B0344401C48804A
:103470001A70012201490348FFF774B808000020C0
:10348000B0000020880500200A4601464FF47A73F8
:103490000148FFF77FB80000880500200FB4054BF6
:1034A00010B503A9044A029800F040F810BC5DF87A
:1034B00014FB0000293A0008A80000200FB4084BB4
:1034C00010B504A902AA039800F030F8044602A936
:1034D000002000F056FA204610BC5DF814FB0000F6
:1034E000833900080907090E002804DB00F1E020F9
:1034F00080F80014704700F00F0000F1E02080F821
:10350000141D704700487047AC00002002E008C856
:10351000121F08C1002AFAD170477047002001E04D
:1035200001C1121F002AFBD1704700002DE9FF4F97
:103530008DB00F460546002606E025280BD0DDE9B4
:103540000F1290476D1C761C28780028F5D111B019
:103550003046BDE8F08F0024A246A1460122E94989
:1035600000E0044315F8013F203B02FA03F0084253
:10357000F7D128782A2810D06FF02F022878A0F1F0
:103580003001092914D80AEB8A0102EB410144F009
:10359000020400EB010A6D1CF0E701CF5FEA000AAC
:1035A00003D544F40054CAF1000A44F002046D1C2F
:1035B00028782E2817D115F8010F44F004042A2882
:1035C0000ED06FF02F022878A0F1300109290AD817
:1035D00009EB890102EB410100EB01096D1CF2E7E7
:1035E00057F8049B6D1C28786C280FD006DC4C28FB
:1035F00017D068280DD06A2814D104E0742810D0A0
:103600007A280FD10DE044F400140AE044F4801449
:1036100001E044F440146978814202D104F5801439
:103620006D1C6D1C28786E281ED00CDC632830D0F1
:1036300004DC00288BD0582811D19FE0642867D083
:1036400069280CD164E073282DD004DC6F2872D077
:10365000702804D194E075286ED078286DD0DDE90B
:103660000F129047761C4BE1C4F30250022806D09B
:10367000032809D0042801CF09D0066040E101CF1A
:10368000F117C0E900613BE101CF068038E1067027
:1036900036E117F8040B8DF8000000208DF80100CA
:1036A000EB46012003E057F804BB4FF0FF30610701
:1036B0004FF0000102D40DE008F1010188464945B0
:1036C0000FDA8045F8DB1BF808100029F4D108E078
:1036D00008F1010188468142FADB1BF80810002935
:1036E000F6D1DDE90F23AAEB08008146214600F060
:1036F00031F9304400EB080604E0DDE90F121BF855
:10370000010B9047B8F10108F7D221464846F2E094
:103710000A21C4F302524FF0000B0891022A04D090
:1037200001CFC117032A09D00AE0FF1D27F00707C0
:10373000F7E8020108E02CE01EE01FE000B2C1172C
:10374000042A01D140B2C117021E71F1000206DA4B
:103750000023D0EB030063EB01012D2202E02205E0
:1037600004D52B228DF82420012203E0E20701D0AA
:103770002022F7E7904653E00A210BE0102109E0F0
:1037800010214FF0000B44F004044FF00809089199
:1037900003E008214FF0000B0891C4F30252022A03
:1037A00004D001CF0021032A06D006E0FF1D27F038
:1037B0000707F7E8020103E080B2042A00D1C0B293
:1037C0004FF0000822072BD52A78702A07D0DDF8A1
:1037D00020C08CF0100C5CEA0B0C05D00EE04022EF
:1037E0008DF82420012208E050EA010306D030239E
:1037F0008DF824308DF8252002229046089B83F016
:10380000080353EA0B030BD150EA010201D162070E
:1038100006D530228DF824204FF00108A9F10109C6
:103820002A78582A04D038A20B9208AA0A920BE0F0
:103830003AA2F9E75B46089AFCF724FD0B9B9B5CD8
:103840000A9A521E0A92137050EA0102F2D10A98A3
:10385000ADEB000000F1200B600702D524F48034AA
:1038600001E04FF00109D94502DDA9EB0B0000E0B2
:10387000002000EB0B0141440890AAEB010AE00391
:1038800006D4DDE90F232146504600F063F80644D4
:103890004FF0000908E009A911F80900DDE90F124D
:1038A000904709F10109761CC145F4DBE0030CD512
:1038B000DDE90F232146504600F04CF8064404E0B1
:1038C000DDE90F1230209047761C0899481E0890B9
:1038D0000029F5DC08E00A980A990078491C0A9149
:1038E000DDE90F129047761CBBF10001ABF1010B33
:1038F000F1DC21465046DDE90F2300F019F80644BB
:103900006D1C21E609280100303132333435363759
:10391000383961626364656600000000303132331B
:1039200034353637383941424344454600000000BB
:103930002DE9F041044600251E461746880404D4AC
:1039400005E039462020B0476D1C641EF9D5284695
:10395000BDE8F0812DE9F041044600251E46904661
:10396000C80301D5302700E02027880404D505E0EE
:1039700041463846B0476D1C641EF9D52846BDE85F
:10398000F0810A68531C0B60107070471548164D83
:1039900013490160A96841604FF0FF363146E8687D
:1039A00000F00CFA11A0FFF779FD4FF47A7000F0E7
:1039B0007AF80C48FCF75EFE3146A86800F0FEF984
:1039C0003146686800F087F80400F5D001460548E4
:1039D000FDF71EF82146686800F0FEF8ECE70000ED
:1039E000A0040020000000200C00002041445331BE
:1039F000323939205461736B3A204E6574776F7297
:103A00006B2069732072656164792E20496E697438
:103A100069616C697A696E67204144533132393982
:103A20002E2E2E0D0A00000013B5642301226946D4
:103A30000248FEF7AFFD00981CBD0000F80400200E
:103A4000EFF30580002800D001207047054C4FF4AB
:103A5000FA7508212046FDF703FB284600F023F8FD
:103A6000F7E7000000040240FDF70EFCFFF788F8BE
:103A7000FDF754F8FEF774FEFEF7DEFDFEF70AFFD1
:103A8000FEF74CFFFEF782FFFEF764FFFEF722FF12
:103A9000FEF704FE00F00EF8FEE701460020842940
:103AA00000D0C81C704710B500B9012000F000FE1E
:103AB000002010BD10B500F099FE002010BD10B51B
:103AC000FFF7BEFF18B1BDE8104001F067BDBDE8CB
:103AD000104001F05DBD002802D0806800F0AAB857
:103AE00070473EB504460020009001900290206887
:103AF0000090606801900C2000F058FCA16800283C
:103B0000086018D0046000220421206801F000F948
:103B1000A16809684860A168096868B1684600F052
:103B2000BEF80100A06800688160A068006802D14A
:103B300000F050FD00203EBD0846F9E710B1806856
:103B400000F0DCB8802070472DE9FF410D000646EB
:103B5000029522D04FF000084446CDF80C80501C4E
:103B600020D002B11446FFF76BFF202700286868B9
:103B700069461CD003AA091D01F05EFB012814D080
:103B8000CDF800800398D8B112494FF080500860FA
:103B9000BFF34F8FBFF36F8F12E0802000902A4653
:103BA00001990FE04FF0FF34DDE70097EAE7224686
:103BB000091D01F0A5FA012808D04CB14020009061
:103BC0009DE8070086E80700BDE8FF810097F7E75A
:103BD0000020F4E704ED00E013B582B004000FD03C
:103BE00000200090FFF72CFF002860684FF00003D2
:103BF00014D06A4603A901F0D5F9012814D102E0D6
:103C0000802004B010BD009880B109494FF0805069
:103C10000860BFF34F8FBFF36F8F07E0002203A947
:103C200001F00EF9012801D0FF20EAE70020E8E7C3
:103C300004ED00E070B5002504462E46FFF700FFB6
:103C400048B15020EFF3118580F31188BFF34F8FF7
:103C5000BFF36F8F01E000F089FC0020A26809E04B
:103C600021690144B1FBF2F302FB131163685B5C51
:103C700043B1401C8242F3D8FFF7E2FE58B185F30E
:103C800011880AE0626801205054E26820682161CE
:103C900001FB0206F0E700F089FC304670BD2DE91B
:103CA000F04105464068C01C20F00307142000F0D6
:103CB0007DFB04001FD0002628682661C4E90207A6
:103CC000286800F073FB606088B12868784300F0D2
:103CD0006DFB206040B1002002E061680E54401C82
:103CE00029688142F9D806E0606800F073FC20463C
:103CF00000F070FC00242046BDE8F08178B171B17D
:103D000002688A420BD88A1AC168B2FBF1F301FB40
:103D1000132323B9B2FBF1F182688A4201D88020D3
:103D200070474068002242541046704738B54368D7
:103D30004BB1012909D10320002200901146012036
:103D400001F007F838BD012901D0002038BD032259
:103D50000021012000F0DCFF040004D000231A46FB
:103D6000194601F06DF8204638BD000038B5002432
:103D700005460094FFF764FE90B16946284601F0BD
:103D800070F9012801D0FF2038BD009888B10A4998
:103D90004FF080500860BFF34F8FBFF36F8F08E084
:103DA00000231A461946284601F04AF8012800D097
:103DB000FF24204638BD000004ED00E038B50500C2
:103DC0004FF0000000900FD00024481C0ED001B12D
:103DD0000C46FFF735FEB8B16A460021284601F0CF
:103DE0002BFA012816D104E0802038BD4FF0FF34B3
:103DF000EFE7009880B109494FF080500860BFF3A9
:103E00004F8FBFF36F8F07E02146284601F062FA1B
:103E1000012801D0FF2038BD002038BD04ED00E0AE
:103E20007FB50D4604464169B0F9080081B1A1692A
:103E300071B1FFF732FED4E905128DE80700D4E92D
:103E400000102B46226901F068FB039004B070BD9E
:103E5000FFF723FE03A9CDE90001208A2B4682B299
:103E6000D4E9001001F02CFB012801D00020EDE77F
:103E70000398EBE7C8B019A0FFF710FB0024264E0B
:103E8000671E3A4644A87168FFF75EFE44982028F2
:103E9000F7D104EBC40000EB40006946459D08449F
:103EA0001B222946FCF71FFA641CA4B2294670683D
:103EB000FFF744FE0A2CE4D318A0042100684790C1
:103EC00047A8FFF7E1FA4FF487716846FFF7DCFA7D
:103ED000002413A0FFF7E2FAD3E7000050726F63EB
:103EE0006573732044617461205461736B3A20528E
:103EF0006561647920746F207265636569766520F9
:103F0000616E64207472616E736D69742064617493
:103F1000612E0D0A000000000C000020AABBCCDDC1
:103F200042617463682053656E742E0D0A000000B0
:103F30002DE9F041184E0F460446F5683068001D23
:103F400000F0C4FA38B9306890F82C10012088408D
:103F5000316981433161601C07D137B13168BDE8F7
:103F6000F0410E48091D00F0F5BA30682C44AC420F
:103F70004460316805D2B06BBDE8F041091D00F026
:103F8000D1BA706B091D00F0CDFAB06A844200D23C
:103F9000B462BDE8F081000040000020F40600207B
:103FA0002DE9F041054600F0E1FA2E4EB068401CC4
:103FB000B06030682C4F10B1706940B32DE03560AF
:103FC000B068012829D1002404EB840007EB8000AD
:103FD00000F09AFA641C072CF6D323488C3000F0CA
:103FE00093FA2148A03000F08FFA1F48B43000F057
:103FF0008BFA1D48C83000F087FA1B48DC3000F00F
:1040000083FA19488C3070631430B06305E030686F
:10401000E96AC06A884200D83560706A0121401C94
:104020007062E86A326981401143316100EB8000BF
:1040300007EB8000291D00F08DFA00F0B7FA7069D7
:1040400000280CD03068E96AC06A884207D2074964
:104050004FF080500860BFF34F8FBFF36F8FBDE804
:10406000F0810000400000201806002004ED00E070
:1040700030B4026C0B46002A0BD0C1681144C160F9
:104080008468A14201D30168C16030BC1846FCF7C6
:104090002AB930BC70472DE9F041856B17460446BC
:1040A0000026026C82B1C7B1E068FCF71CF9E16838
:1040B000206C091AE1602268914202D2A168081AB4
:1040C000E060022F16D017E02068A8B9A06801F0C0
:1040D000D3FA06460020A0600EE06068FCF703F902
:1040E000216C606808446060A168884204D320683D
:1040F000606001E005B16D1E6D1CA5633046BDE832
:10410000F08110B5044690F8510058B101280CD048
:1041100002280FD0502080F31188BFF34F8FBFF3D8
:104120006F8FFEE7206B00F055FA2046BDE8104087
:1041300000F050BA10BD000010484FF47051420713
:1041400006D0C01D0D4920F00700411AC1F570517D
:104150000B4A00230144C2E900030839183A21F050
:10416000070111604B600B600B1AC0E900139360EC
:104170004FF0004053605061704700000807002076
:1041800094000020134E144DA6F1C8074FF080583C
:10419000DFF8489011E000F0E9F9F068C468201DEC
:1041A00000F094F9A868401EA8606868401E686026
:1041B00000F0FCF92046FFF7A4FF68680028EAD168
:1041C00038680128F9D9C9F80080BFF34F8FBFF3D1
:1041D0006F8FF2E7E00600204000002004ED00E0D1
:1041E0000346009829B10260C0E90F31012100F0B7
:1041F000E3BD0060F8E72DE9F0479A46DDE9098460
:1042000081466FF00303206B03EB82021044089D8C
:1042100020F00706700707D0502080F31188BFF305
:104220004F8FBFF36F8FFEE7002761B10020231887
:104230000A5C83F834200A5C12B1401C1028F6D3C3
:1042400084F8437001E084F83470072D00D306250C
:10425000E562C4E91157201D00F061F904F118006E
:1042600000F05DF92461C5F107006462A061E764B4
:1042700084F8507052464946304600F011F92060EB
:10428000B8F1000F01D0C8F80040BDE8F087000089
:1042900030B5114900E011460A688242FBD34B68F1
:1042A0005C18844203D1406818444860084643685B
:1042B0001C18944209D1084C183C2468A24209D029
:1042C00052681A4442600A6812680260814200D053
:1042D000086030BD0460F9E79400002010B5044682
:1042E00000F044F9A06B20B1002400F05FF92046F3
:1042F00010BD0124F9E700000648416B096829B1A7
:10430000416BC968C9684968816270474FF0FF31E5
:10431000FAE700004000002008484068401C4FF0C9
:10432000500080F3118804D0BFF34F8FBFF36F8F1D
:10433000FEE7BFF34F8FBFF36F8FFEE79C000020B7
:104340002DE9F041044600F011F994F9455004F1CB
:10435000240609E0606A48B1304601F01FFA08B14E
:1043600000F0D4F96D1E6DB2002DF3DC4FF0FF3676
:1043700084F8456000F01AF900F0F8F894F9445018
:1043800004F1100709E0206948B1384601F006FA47
:1043900008B100F0BBF96D1E6DB2002DF3DC84F89E
:1043A0004460BDE8F04100F001B900002DE9F041A2
:1043B0000546002600F0AEFA324F386808B9FFF71C
:1043C000BBFE786905424ED1C5B3083568070ED0EB
:1043D00005F00700C0F108000544680707D0502029
:1043E00080F31188BFF34F8FBFF36F8FFEE72DB3BC
:1043F0007868854237D8234918310846046801E0B7
:10440000214604466068A84202D220680028F7D1FD
:104410003868844227D00E682068086060680836D3
:10442000411B10290FD96019420708D0502080F392
:104430001188BFF34F8FBFF36F8FFEE713E041602A
:104440006560FFF725FF61687868401A7860BA6890
:10445000904200D2B860786901430020C4E90001AD
:10446000F868401CF86001F0D3F9700707D05020BD
:1044700080F31188BFF34F8FBFF36F8FFEE7304695
:10448000BDE8F0817C0000200449086818B1086884
:10449000826C521C82640868704700004000002053
:1044A00010B5031F4FF080741C601B1F21F0010129
:1044B0001960191F044B0B6014390A60091F6FF053
:1044C000020244380A6010BD19430008D0E90132E5
:1044D00001699A60D0E901235A604A68824201D199
:1044E00082684A60002202610868401E086008680D
:1044F00070470000034B036003F154000860802004
:1045000010607047B001002000F108014FF0FF3249
:10451000C0E90112C1600161002101607047002102
:104520000161704730B50C68621C02D000F10802CE
:1045300002E0026904E01A4653681D68A542FAD9F0
:1045400053684B6099608A60516008610168491C3A
:10455000016030BD42684A6093688B60936859601F
:10456000916008610168491C01607047502080F328
:104570001188BFF34F8FBFF36F8F0A494868401C03
:10458000486001280CD10848006810F0FF0F07D0E0
:10459000502080F31188BFF34F8FBFF36F8FFEE77A
:1045A000704700009C00002004ED00E008494868C6
:1045B00028B1401E486001D180F311887047502017
:1045C00080F31188BFF34F8FBFF36F8FFEE70000BA
:1045D0009C00002070B500282AD0164DA0F10804D8
:1045E00060686969084207D1502080F31188BFF3E1
:1045F0004F8FBFF36F8FFEE722683AB1502080F3F0
:104600001188BFF34F8FBFF36F8FFEE78843606061
:1046100000F080F960686968084468602046FFF728
:1046200037FE2869401C2861BDE8704001F0F0B8F1
:1046300070BD00007C0000204FF0E02000210161EF
:10464000816105494FF47A720968B1FBF2F1491EA4
:1046500041610721016170473C00002010B5FBF764
:10466000FBFD114910280ED300F1E02090F8F00373
:104670000A78904207D2502080F31188BFF34F8F01
:10468000BFF36F8FFEE709480068896800F4E060B7
:10469000884207D9502080F31188BFF34F8FBFF3B2
:1046A0006F8FFEE710BD00009C0000200CED00E0C5
:1046B00010B5020014D00F48006B38B1502080F3C1
:1046C0001188BFF34F8FBFF36F8FFEE700F022F921
:1046D00000211046FFF72CFC01F09AF8002807D1C2
:1046E00005494FF080500860BFF34F8FBFF36F8FC5
:1046F00010BD00004000002004ED00E002490A6AFD
:104700000260C968416070474000002001490120F3
:10471000C86170474000002010B50C4650B10949EF
:1047200009681831FFF7FEFE2046BDE81040012160
:10473000FFF7FEBB502080F31188BFF34F8FBFF30C
:104740006F8FFEE74000002070B50B46040047D095
:10475000A26CA2B1616C994200D21946E06A88420B
:104760003ED0012A3CD11F4D2A6894420FD15020DF
:1047700080F31188BFF34F8FBFF36F8FFEE7502098
:1047800080F31188BFF34F8FBFF36F8FFEE7E162B5
:10479000A269002A02DBC1F10701A161124E00EB00
:1047A0008000616906EB8000814219D1201DFFF76E
:1047B0008DFE012130B994F82C002A6901FA00F02D
:1047C00082432A61E06A2A6981401143296100EB32
:1047D000800006EB8000211DBDE87040FFF7BABEE7
:1047E00070BD0000400000201806002010B586B003
:1047F0000024039405AA04A903A80494FFF77AFEF1
:10480000DDE903010094CDE9011000230EA1104859
:10481000059A00F082FE0F490028C86211D050208E
:1048200080F31188BFF34F8FBFF36F8F4FF0FF30CE
:10483000886201204861CC6006B0BDE8104000F0FD
:10484000EDB906B010BD000049444C450000000021
:10485000854100084000002070B50446FFF786FE41
:10486000294D04B92C68201DFFF730FE58B9E06AC5
:10487000264A00EB800152F8211021B90121814024
:10488000286988432861A06A18B104F11800FFF76D
:104890001DFE1E48211DDC30FFF75CFE94F8500021
:1048A0000026012801D184F85060FFF77FFE686977
:1048B00028B1FFF75BFEFFF71FFDFFF777FE2868C3
:1048C000844213D1686990B1286B38B1502080F3CD
:1048D0001188BFF34F8FBFF36F8FFEE70C494FF086
:1048E00080500860BFF34F8FBFF36F8F70BD0748D4
:1048F000DC300068A968884201D12E6070BDBDE837
:10490000704000F00FB800004000002018060020A2
:1049100004ED00E00248016B491C01637047000090
:1049200040000020144A106B10B10120D061704784
:104930000020D06110691149B0FA80F0C0F11F0069
:1049400000EB800051F820306BB101EB800000F1EA
:104950000803416849684160994201D14968416052
:10496000C86810607047502080F31188BFF34F8FE4
:10497000BFF36F8FFEE70000400000201806002004
:1049800070B54FF47A70FFF78EF841F2883405E085
:104990001AA0FEF783FD2046FFF785F8FEF7D8FB47
:1049A0000028F5D020A0FEF779FD41F6907505E0CE
:1049B00023A0FEF773FD2046FFF775F82A4A294623
:1049C0002AA0FEF711FB0028F2D02CA0FEF766FD0E
:1049D000254C2078FEF776FB10B10120607001E0D5
:1049E000607828B12BA0FEF759FDE068FFF7BEF90B
:1049F000BDE870400020FFF72FBF000057694669EF
:104A000020496E697469616C697A6174696F6E209E
:104A10006661696C65642C207265747279696E6771
:104A20002E2E2E0D0A0000005769466920415020A5
:104A3000636F6E6E65637465642E0D0A000000007E
:104A400054435020436F6E6E656374696F6E2066C9
:104A500061696C65642C207265747279696E672E69
:104A60002E2E0D0A000000000C0000203139322EDD
:104A70003136382E3133372E313434005443502000
:104A800053657276657220636F6E6E6563746564DC
:104A90002E0D0A004E6574776F726B206973207259
:104AA000656164792E2052656C656173696E67205B
:104AB00073656D6170686F72652E0D0A00000000ED
:104AC00010B54FF480710348FBF726FC0249002023
:104AD000488010BDB0000020080000202DE9F04102
:104AE00015460F460446FFF7EBFF214621A0FEF7CF
:104AF000D5FC2046FBF72DFC82B24FF47A73214699
:104B00001F48FDF747FDFEF7DAFF04461D4E23E080
:104B1000708800281DD039461B48FBF708FC50B1AF
:104B200019491AA0FEF7BAFC39461CA0FEF7B6FCDC
:104B30000120BDE8F08120A11348FBF7F8FB40B14C
:104B4000114912A0FEF7AAFC1DA0FEF7A7FC002049
:104B5000EFE70A20FEF7A7FFFEF7B1FF001BA84210
:104B6000D6D339461EA0FEF799FC074925A0FEF7CB
:104B700095FCECE7574946492054583A20257300E4
:104B80008805002008000020B00000205749464951
:104B90002052583A2025730D0A0000005749464913
:104BA0003A20466F756E6420726573706F6E736520
:104BB00020222573220D0A004552524F5200000058
:104BC000574946493A204D6F64756C65207265748B
:104BD00075726E6564204552524F52210D0A0000D5
:104BE000574946493A2054696D656F75742077615D
:104BF0006974696E6720666F7220222573222E0DFC
:104C00000A000000574946492046696E616C2042FF
:104C100075666665723A2025730D0A001CB5374823
:104C20000168374A914207D1502080F31188BFF3C1
:104C30004F8FBFF36F8FFEE700683149491E8842EE
:104C400007D1502080F31188BFF34F8FBFF36F8FD0
:104C5000FEE72C4908780190FF20087008788DF84D
:104C600000009DF800009DF8002000F0F000904248
:104C700007D0502080F31188BFF34F8FBFF36F8FA1
:104C8000FEE79DF80000204C00F050002070072047
:104C9000A06006E0401EA0609DF8000040008DF876
:104CA00000009DF800000006A068F3D4032807D098
:104CB000502080F31188BFF34F8FBFF36F8FFEE753
:104CC0004FF44070A060019808700C4820300168D3
:104CD00041F470010160016841F070410160FFF72B
:104CE000ABFC00206060FBF77FFA0848016841F0E8
:104CF00040410160FBF764FA00201CBD00ED00E0BC
:104D000071C20F4100E400E09C00002034EF00E09D
:104D1000F8B517460E46050013D005FB06F04830DF
:104D2000FFF744FB04000AD0002084F8460004F199
:104D300048023B46314628460094FFF751FA204688
:104D4000F8BD502080F31188BFF34F8FBFF36F8FF2
:104D5000FEE738B5049D18B153B1CAB181B120E066
:104D6000502080F31188BFF34F8FBFF36F8FFEE7A2
:104D7000502080F31188BFF34F8FBFF36F8FFEE792
:104D8000502080F31188BFF34F8FBFF36F8FFEE782
:104D900039B1502080F31188BFF34F8FBFF36F8F6D
:104DA000FEE748241C46012384F846302B46009435
:104DB000FFF716FA204638BD70B50D46040025D021
:104DC000FFF7D4FBD4E90F20216802FB0011A1609A
:104DD0000021A163216861600A46D4E90F01401EE9
:104DE00000FB0121E16021464FF0FF3001F8440F44
:104DF000487004F110008DB1FFF786FB04F1240028
:104E0000FFF782FBFFF7D2FB012070BD502080F33B
:104E10001188BFF34F8FBFF36F8FFEE72169002921
:104E2000F0D000F0BBFC0028ECD004494FF08050DB
:104E30000860BFF34F8FBFF36F8FE3E704ED00E02F
:104E40002DE9FF4F83B01F468B4604004FF000064C
:104E500003D0BBF1000F08D011E0502080F311887F
:104E6000BFF34F8FBFF36F8FFEE7206C38B1502038
:104E700080F31188BFF34F8FBFF36F8FFEE7022FD0
:104E80000AD1E06B012807D0502080F31188BFF3CE
:104E90004F8FBFF36F8FFEE700F06CFBDFF80091E0
:104EA0004FF0000A4FF0805848B9059838B15020AB
:104EB00080F31188BFF34F8FBFF36F8FFEE7FFF7CB
:104EC00055FBA06BE16B884205D3022F03D00598F8
:104ED000C8B1DEB11EE03A4659462046FFF7DBF87E
:104EE000616A19B104F1240000F058FC28B1C9F836
:104EF0000080BFF34F8FBFF36F8FFFF757FB012089
:104F000007B0BDE8F08FFFF751FB21E06846FFF7DF
:104F1000F5FB0126FFF74AFBFFF7FCFCFFF726FB3A
:104F200094F94400401C01D184F844A094F9450050
:104F3000401C01D184F845A0FFF738FB05A968465D
:104F400000F084FA30B12046FFF7FAF900F060FC77
:104F50000020D5E7FFF70AFBA06BE16B884201D187
:104F6000012500E00025FFF721FB95B104F11000B9
:104F70000599FFF7D1FB2046FFF7E2F900F048FC66
:104F800000289CD1C9F80080BFF34F8FBFF36F8F0B
:104F900095E72046FFF7D4F900F03AFC8FE70000D0
:104FA00004ED00E02DE9F0471F46904689460400D5
:104FB00003D0B9F1000F08D011E0502080F3118820
:104FC000BFF34F8FBFF36F8FFEE7206C38B15020D7
:104FD00080F31188BFF34F8FBFF36F8FFEE7022F6F
:104FE0000AD1E06B012807D0502080F31188BFF36D
:104FF0004F8FBFF36F8FFEE7FFF730FB5020EFF3CB
:10500000118680F31188BFF34F8FBFF36F8FA06BB2
:10501000E16B884206D3022F04D0002086F311886A
:10502000BDE8F08794F94550A06B3A4649462046C2
:10503000FFF731F8681C04D06D1C84F8455001203E
:10504000ECE7606A0028FAD004F1240000F0A6FB27
:105050000028F4D0B8F1000FF1D00121C8F80010F9
:10506000EDE770B50E46040009D0206C78B15020F1
:1050700080F31188BFF34F8FBFF36F8FFEE750208F
:1050800080F31188BFF34F8FBFF36F8FFEE7206867
:1050900048B9A06838B1502080F31188BFF34F8F12
:1050A000BFF36F8FFEE7FFF7D9FA5020EFF31185BA
:1050B00080F31188BFF34F8FBFF36F8FA16BE06B4D
:1050C000884218D994F94500491CA163411C04D0B9
:1050D000401C84F8450001200EE0606A0028FAD0E8
:1050E00004F1240000F05AFB0028F4D0002EF2D086
:1050F00001203060EFE7002085F3118870BD0000CB
:105100002DE9F74783B08A4604004FF0000603D02C
:10511000BAF1000F08D011E0502080F31188BFF3DE
:105120004F8FBFF36F8FFEE7206C38B1502080F3B4
:105130001188BFF34F8FBFF36F8FFEE700F01AFAAD
:10514000DFF8F09000274FF0805848B9059838B143
:10515000502080F31188BFF34F8FBFF36F8FFEE7AE
:10516000FFF704FAA56BC5B151462046FEF780FF54
:105170006D1EA563206950B104F1100000F00EFB14
:1051800028B1C9F80080BFF34F8FBFF36F8FFFF7CF
:105190000DFA012006B0BDE8F087059808B11EB1F0
:1051A00006E0FFF703FA27E06846FFF7A7FA0126B3
:1051B000FFF7FCF9FFF7AEFBFFF7D8F994F94400CD
:1051C000401C01D184F8447094F94500401C01D181
:1051D00084F84570FFF7EAF905A9684600F036F94A
:1051E000002820460AD0FFF7ABF800F011FB20465C
:1051F000FFF774F80028B3D00020CBE7FFF76EF874
:1052000090B104F124000599FFF786FA2046FFF7D4
:1052100097F800F0FDFA0028A2D1C9F80080BFF38A
:105220004F8FBFF36F8F9BE72046FFF789F800F0A1
:10523000EFFA95E704ED00E02DE9F0479046894646
:10524000040003D0B9F1000F08D011E0502080F322
:105250001188BFF34F8FBFF36F8FFEE7206C38B11B
:10526000502080F31188BFF34F8FBFF36F8FFEE79D
:10527000FFF7F4F95020EFF3118780F31188BFF3A3
:105280004F8FBFF36F8FA66BF6B194F94450494628
:105290002046FEF7EDFE761EA663681C04D06D1C4A
:1052A00084F84450012010E020690028FAD004F16D
:1052B000100000F073FA0028F4D0B8F1000FF1D01C
:1052C0000121C8F80010EDE7002087F31188BDE840
:1052D000F08700002DE9F3434FF0000583B0040090
:1052E0002E4609D0206C78B1502080F31188BFF38E
:1052F0004F8FBFF36F8FFEE7502080F31188BFF30D
:105300004F8FBFF36F8FFEE700F034F9DFF838916D
:1053100000274FF0805848B9049838B1502080F3E6
:105320001188BFF34F8FBFF36F8FFEE7FFF71EF9B2
:10533000A06BC8B1401EA063206810B9FFF7A4F8A5
:10534000A060206950B104F1100000F027FA28B1E4
:10535000C9F80080BFF34F8FBFF36F8FFFF726F9B7
:10536000012005B0BDE8F083049808B165B10FE0F5
:105370003EB1502080F31188BFF34F8FBFF36F8F82
:10538000FEE7FFF713F95DE06846FFF7B7F901257F
:10539000FFF70CF9FFF7BEFAFFF7E8F894F94400BD
:1053A000401C01D184F8447094F94500401C01D19F
:1053B00084F84570FFF7FAF804A9684600F046F84B
:1053C0000028204612D0FEF7BBFF00F021FA20464D
:1053D000FEF784FF0028A9D09EB3FFF7C7F8606AE4
:1053E00050B3206B0068C0F1070126E0FEF776FF9E
:1053F000E0B1206838B9FFF7B9F8A06800F088F983
:105400000646FFF7D3F804F124000499FFF784F966
:105410002046FEF795FF00F0FBF9002886D1C9F879
:105420000080BFF34F8FBFF36F8F7FE72046FEF7FB
:1054300087FF00F0EDF979E70021A068FFF784F914
:105440009FE7FFE700208CE704ED00E02DE9F04145
:105450000C46050011D0C4B1FFF788F8174EF1686B
:105460006B682268C81A571C17D02F68366AB74273
:1054700019D08B4217D8012410E0502080F31188F6
:10548000BFF34F8FBFF36F8FFEE7502080F311887B
:10549000BFF34F8FBFF36F8FFEE70024FFF786F84F
:1054A0002046BDE8F081824205D9101A20602846C6
:1054B000FFF724F9F1E700202060DCE7400000203E
:1054C0002DE9FF5F8346DDE90E87994616468A4639
:1054D0009000FEF76BFF05001CD05420FEF766FF1E
:1054E000040014D00020256384F85100CDE9024067
:1054F000CDE900874B46324651465846FEF77BFEC3
:105500002046FEF74DFD012004B0BDE8F09F28467F
:10551000FFF760F84FF0FF30F6E7F0B585B00546CD
:10552000DDE90B040A9EA8B1E4B15427009720637B
:10553000022084F851000020CDE9024004AF284643
:10554000CDE90067FEF757FE2046FEF729FD0498D7
:1055500005B0F0BD502080F31188BFF34F8FBFF32B
:105560006F8FFEE7502080F31188BFF34F8FBFF39A
:105570006F8FFEE70548416919B1006B18B1002033
:105580007047012070470220704700004000002053
:105590000148C068704700004000002010B5FFF7C8
:1055A0005DF80148C06810BD400000202DE9F041C1
:1055B0002F4F0026386B28B1B869401CB8613046BF
:1055C000BDE8F081FD686D1CFD6013D1786B00684B
:1055D00038B1502080F31188BFF34F8FBFF36F8F26
:1055E000FEE7786BB96B7963B863386A401C386240
:1055F000FEF782FEB86ADFF87C80854209D3786BBB
:105600000068A0B1786BC068C4686068854211D238
:10561000B8623868C06A00EB800158F821000128A0
:1056200000D90126F8690028C9D00126C7E74FF044
:10563000FF30EDE7201DFEF749FFA06A18B104F125
:105640001800FEF743FFE06A01213A6981401143E7
:10565000396100EB800108EB8100211DFEF77AFF24
:10566000E06A3968C96A8842C9D30126C7E70000E1
:10567000400000201806002070B504004FF0000024
:1056800041D0214D29688C4207D0502080F31188E9
:10569000BFF34F8FBFF36F8FFEE7A16C71B1491E4F
:1056A000A164636CE26A9A422DD000292BD1201D9F
:1056B000FEF70CFF1549012240B112E0502080F3A3
:1056C0001188BFF34F8FBFF36F8FFEE7E06A00EBE7
:1056D000800351F8233023B92B6902FA00F0834389
:1056E0002B61606CE062C0F10700A061E06A2B6989
:1056F00082401A432A6100EB800001EB8000211DEB
:10570000FEF728FF012070BD400000201806002091
:1057100070B504004FF0000035D01E4DE16A2A68D4
:10572000D26A914230D2A069002804DB2868C06A9E
:10573000C0F10700A061E06A174E00EB80006169CC
:1057400006EB800081421AD1201DFEF7BFFE012129
:1057500030B994F82C002A6901FA00F082432A61DA
:105760002868C06AE0622A6981401143296100EB20
:10577000800006EB8000211DFEF7ECFE02E02868A9
:10578000C06AE062012070BD616C2A68D26A9142F1
:10579000F8D370BD40000020180600202DE9F0412C
:1057A000C068C468ACB104F118000746FEF78EFE6D
:1057B000154D286B0126A0B139461448FEF7CAFEE4
:1057C000E06A2968C96A88421CD90120EE61BDE8F7
:1057D000F081502080F31188BFF34F8FBFF36F8F9C
:1057E000FEE7201DFEF772FEE06A2A6906FA00F164
:1057F00011432961054900EB8000B43901EB8000B9
:10580000211DDBE70020E2E740000020CC0600205D
:105810002DE9F0472C4D00242746286B38B1FEF7C0
:10582000A5FE286B401E2863286B40B146E050203F
:1058300080F31188BFF34F8FBFF36F8FFEE7A86827
:1058400022490126D0B3A1F1B4098846D8F8001046
:10585000E9B1D8F80C00C46804F11800FEF736FE70
:10586000201DFEF733FEE06A2A6906FA00F11143B3
:10587000296100EB800109EB8100211DFEF76AFE22
:10588000E06A2968C96A8842E0D3EE61DEE70CB1BC
:10589000FEF732FDAC693CB1FFF788FE00B1EE6166
:1058A000641EF9D10020A861E86938B108490127D0
:1058B00038070860BFF34F8FBFF36F8FFEF776FE98
:1058C0003846BDE8F087000040000020CC060020EC
:1058D00004ED00E0200000001B00000000000000BC
:1058E000745A00084D2B0008000000000000000062
:1058F000800000000000000000000000605A000866
:1059000081490008000000000000000000040000C1
:105910000000000000000000545A00088D39000803
:105920000200000000000000000400000000000071
:1059300000000000685A0008753E000800000000E2
:105940000000000000040000000000000000000053
:105950005C5A00084D3A0008FDFF000000000000FE
:1059600080000000000000000000000000000000B7
:1059700000000000010203040607080900000000FF
:10598000010203040040404040404040404041414B
:105990004141414040404040404040404040404004
:1059A000404040404005020202020202020202029E
:1059B000020202020220202020202020202020029B
:1059C000020202020202909090909090101010102B
:1059D00010101010101010101010101010101010C7
:1059E000020202020202888888888888080808085B
:1059F0000808080808080808080808080808080827
:105A00000202020240000000855900085749464939
:105A1000204572726F723A2054696D6564206F750B
:105A2000742077616974696E6720666F72204950CF
:105A3000206164647265737320282B4556454E546B
:105A40003A574946495F474F545F4950292E0D0A3E
:105A50000000000061647331323939006C65640004
:105A6000776966690000000070726F636573735434
:105A700061736B0064656661756C745461736B006F
:105A8000A05A000800000020B00000000C350008FB
:105A9000505B0008B0000020584600001C3500088C
:105AA00000000000000000000000000000000000F6
:105AB00000000000000000000000000000000000E6
:105AC00000000000000000000000000000000000D6
:105AD0000100000010000000000000000024F4009D
